S01400005353445F313330365F5350492E73726563B2
S11300000C945F000C9425020C947C000C947C00EE
S11300100C947C000C947C000C947C000C947C006C
S11300200C947C000C947C000C947C000C947C005C
S11300300C947C000C947C000C947C000C947C004C
S11300400C947C000C947C000C947C000C947C003C
S11300500C947C000C947C000C947C000C947C002C
S11300600C947C000C947C0000000000000808083C
S113007008083E5149453E00427F400042615149D3
S1130080462141454B311814127F10274545453907
S11300903C4A494930017109050336494949360644
S11300A04949291E00363600007E1111117E631461
S11300B0081463030478040361514945430011247F
S11300C01FBECFEFD8E0DEBFCDBF11E0A0E0B1E0AE
S11300D0E4EDFBE002C005900D92A631B107D9F71B
S11300E021E0A6E1B1E001C01D92A332B207E1F71D
S11300F00E9434020C94E8050C9400008032A1F0B4
S11301008D32A1F090ED980F9A3010F48E5208952C
S11301108A3371F0813471F0883571F0893571F06A
S11301208A3571F480E1089580E0089581E00895AE
S11301308CE008958DE008958EE008958FE0089591
S113014080E008951092B90088E48093B80084E0B8
S11301508093BC00089584EA8093BC008091BC0025
S11301608823E4F7089584E98093BC00089580937C
S1130170BB0084E88093BC008091BC008823E4F732
S11301808091B900887F089584EC8093BC008091AD
S1130190BC008823E4F78091BB00089584E8809331
S11301A0BC008091BC008823E4F78091BB000895D3
S11301B0CF93DF93D82FC62F0E94AB0080ED0E940F
S11301C0B7008D2F0E94B7008C2F0E94B7000E94A9
S11301D0B300DF91CF91089561E08BE60E94D800CF
S11301E063E08AE10E94D80064E089E10E94D800BB
S11301F061E088E30E94D80008958F929F92AF92A5
S1130200BF92CF92DF92EF92FF921F93CF93DF932F
S113021000D000D000D0CDB7DEB74C015B016A013D
S11302200E94AB0080ED0E94B7008BE30E94B700F0
S11302300E94AB0081ED0E94B70010E00CC0E12EDB
S1130240F12C0E94C400E1E0F0E0EC0FFD1FEE0D84
S1130250FF1D80831F5F153090F30E94CE00182F7E
S11302600E94B300898190E0982F88272A81822BED
S1130270F401918380838B8190E0982F88272C81CF
S1130280822BF501918380838D8190E0982F8827BC
S1130290812BF6019183808326960FB6F894DEBFF6
S11302A00FBECDBFDF91CF911F91FF90EF90DF90F4
S11302B0CF90BF90AF909F908F90089584B18F623C
S11302C084B984B18F7E84B985B1856085B980E5B0
S11302D08CBD08958EBD0DB407FEFDCF089595B174
S11302E09D7F95B995B19B7F95B90E946A0185B1AF
S11302F0846085B90895CF93DF93D0E01CC080EB70
S11303008D0F0E946F0180E00E946F0180E10E94C6
S11303106F01C0E00DC085B1826085B985B18B7F66
S113032085B980E00E946A0185B1846085B9CF5F98
S1130330CC238CF7DF5FD83010F3DF91CF91089591
S113034085B18E7F85B98FE39CE90197F1F700C0F1
S1130350000085B1816085B98FE39CE90197F1F7CD
S113036000C0000080E20E946F0180E00E946F01E3
S11303708DE80E946F0184E10E946F019FEF21EEDE
S113038084E0915020408040E1F700C000008FEAF3
S11303900E946F019FEF20E782E09150204080404F
S11303A0E1F700C000000E947B0108958EEA0E94DC
S11303B06F018DE80E946F0180E10E946F012FEFB1
S11303C081EE94E0215080409040E1F700C00000AD
S11303D00895CF93DF930E947E00D82F85B1826069
S11303E085B9C0E017C08D2F90E0FC01EE0FFF1F10
S11303F0EE0FFF1FE80FF91FEC0FF11DE859FF4F37
S1130400849195B19B7F95B90E946A0185B18460FE
S113041085B9CF5FC53038F385B18B7F85B980E06E
S11304200E946A0185B1846085B9DF91CF910895F6
S1130430CF93DF93EC0103C021960E94E9018881E8
S11304408111FACFDF91CF9108951F920F920FB6C9
S11304500F9211248F9381E0809316018F910F9056
S11304600FBE0F901F901895CF93DF93CDB7DEB7D3
S1130470A0970FB6F894DEBF0FBECDBF8BB18F7EB1
S11304808BB98AB180618AB98BB180628BB98AB128
S11304908F7D8AB90E94A2000E94EC000E945E0136
S11304A00E94A00181E0809300018BB180618BB92F
S11304B08BB18B7F8BB98AB18B7F8AB9E9E6F0E087
S11304C08081836080838DB381608DBB8FB78068AA
S11304D08FBF4D9921C02FEF80E792E021508040DB
S11304E09040E1F700C000004D9916C081E0909162
S11304F00001911180E080930001882331F00E9473
S1130500A0018BB180618BB905C00E94D6018BB16B
S11305108F7E8BB94D9BFECF809116018823C9F243
S1130520809100018823A9F21092160149E151E05B
S113053061E271E08BE191E00E94FD0080EB0E949A
S11305406F0180E00E946F0180E10E946F01809141
S11305501C018F9380911B018F9381E091E09F9305
S11305608F938E010F5F1F4F1F930F930E94FE0204
S1130570C8010E94180282EB0E946F0180E00E9471
S11305806F0180E10E946F01809122018F9380911D
S113059021018F9388E091E09F938F931F930F9392
S11305A00E94FE02C8010E94180284EB0E946F019F
S11305B080E00E946F0180E10E946F0180911A0126
S11305C08F93809119018F938FE091E09F938F9384
S11305D01F930F930E94FE02C8010E9418022FEF7E
S11305E080E792E0215080409040E1F700C0000095
S11305F00FB6F894DEBF0FBECDBF6BCFAEE0B0E058
S1130600E4E0F3E00C94BF050D891E8986E08C8339
S11306101A8309838FEF9FE79E838D83AE01475E24
S11306205F4F6F89788DCE0101960E942003EF8180
S1130630F885E00FF11F10822E96E4E00C94DB05A0
S1130640ABE0B0E0E6E2F3E00C94B1056C017B01B1
S11306508A01FC0117821682838181FFCCC1CE01FD
S113066001963C01F6019381F70193FD859193FF77
S113067081917F01882309F4BAC1853239F493FD4D
S1130680859193FF81917F01853229F4B60190E031
S11306900E941705E7CF912C212C312CFFE1F31593
S11306A0D8F08B3279F038F4803279F08332A1F4C7
S11306B0232D20611DC08D3261F0803369F4232D18
S11306C0216016C0832D8260382EE32DE4603E2E17
S11306D02AC0F32DF8601DC037FC2DC020ED280F73
S11306E02A3040F08E32B9F436FC81C1232D2064C7
S11306F0322E19C036FE06C08AE0989E200D1124C1
S1130700922E11C0EAE02E9E200D1124222EF32DEC
S1130710F0623F2E08C08C3621F4832D8068382E79
S113072002C0883641F4F70193FD859193FF8191CE
S11307307F018111B3CF982F9F7D9554933028F476
S11307400C5F1F4F9FE399830DC0833631F08337CD
S113075071F0833509F059C021C0F8018081898383
S11307600E5F1F4F88248394912C530113C02801DA
S1130770F2E04F0E511CF801A080B18036FE03C098
S1130780692D70E002C06FEF7FEFC5010E940C0578
S11307904C018201F32DFF773F2E16C0280122E081
S11307A0420E511CF801A080B18036FE03C0692DB1
S11307B070E002C06FEF7FEFC5010E9401054C019C
S11307C0F32DF0683F2E820133FC1BC0822D90E094
S11307D088169906B0F4B60180E290E00E941705ED
S11307E02A94F4CFF50137FC859137FE81915F019E
S11307F0B60190E00E94170521102A9421E0821A84
S113080091088114910471F7E8C0843611F0893697
S113081041F5F80137FE07C06081718182819381BF
S11308200C5F1F4F08C060817181072E000C880B7C
S1130830990B0E5F1F4FF32DFF763F2E97FF09C0D4
S113084090958095709561957F4F8F4F9F4FF0687D
S11308503F2E2AE030E0A3010E945305882E86181B
S113086045C0853731F4232D2F7EB22E2AE030E0A7
S113087025C0932D997FB92E8F36C1F018F4883591
S113088079F0B5C0803719F0883721F0B0C0E92F6E
S1130890E061BE2EB4FE0DC0FB2DF460BF2E09C076
S11308A034FE0AC0292F2660B22E06C028E030E0AC
S11308B005C020E130E002C020E132E0F801B7FEDB
S11308C007C060817181828193810C5F1F4F06C0D4
S11308D06081718180E090E00E5F1F4FA3010E9450
S11308E05305882E8618FB2DFF773F2E36FE0DC04C
S11308F0232D2E7FA22E891458F434FE0BC032FC13
S113090009C0832D8E7EA82E05C0B82CA32C03C04D
S1130910B82C01C0B92CA4FE0FC0FE01E80DF11DD6
S11309208081803321F49A2D997EA92E09C0A2FEDC
S113093006C0B394B39404C08A2D867809F0B394A6
S1130940A3FC11C0A0FE06C0B21488F4280C922C9B
S11309509B180EC0B21460F4B60180E290E00E94CD
S11309601705B394F7CFB21418F42B1802C0982CBF
S1130970212CA4FE10C0B60180E390E00E9417056C
S1130980A2FE17C0A1FC03C088E790E002C088E57E
S113099090E0B6010CC08A2D867859F0A1FE02C001
S11309A08BE201C080E2A7FC8DE2B60190E00E94D8
S11309B01705891438F4B60180E390E00E94170506
S11309C09A94F7CF8A94F301E80DF11D8081B60162
S11309D090E00E9417058110F5CF222009F442CE41
S11309E0B60180E290E00E9417052A94F6CFF60142
S11309F08681978102C08FEF9FEF2B96E2E10C94E2
S1130A00CD05FC010590615070400110D8F7809528
S1130A1090958E0F9F1F0895FC01615070400190C6
S1130A200110D8F7809590958E0F9F1F08950F930E
S1130A301F93CF93DF93FB01238121FD03C08FEF2D
S1130A409FEF2CC022FF16C0468157812481358137
S1130A504217530744F4A081B1819D012F5F3F4F9A
S1130A60318320838C93268137812F5F3F4F3783D7
S1130A70268314C08B01EC01FB010084F185E02D79
S1130A800995892BE1F6D80116968D919C911797BB
S1130A90019617969C938E931697CE01DF91CF9172
S1130AA01F910F910895FA01AA27283051F120319E
S1130AB081F1E8946F936E7F6E5F7F4F8F4F9F4FEE
S1130AC0AF4FB1E03ED0B4E03CD0670F781F891F30
S1130AD09A1FA11D680F791F8A1F911DA11D6A0FFE
S1130AE0711D811D911DA11D20D009F468943F91B1
S1130AF02AE0269F11243019305D3193DEF6CF01B0
S1130B000895462F4770405D4193B3E00FD0C9F775
S1130B10F6CF462F4F70405D4A3318F0495D31FDE2
S1130B204052419302D0A9F7EACFB4E0A695979535
S1130B30879577956795BA95C9F70097610571050B
S1130B4008959B01AC010A2E069457954795379555
S1130B502795BA95C9F7620F731F841F951FA01DAF
S1130B6008952F923F924F925F926F927F928F924D
S1130B709F92AF92BF92CF92DF92EF92FF920F9328
S1130B801F93CF93DF93CDB7DEB7CA1BDB0B0FB632
S1130B90F894DEBF0FBECDBF09942A8839884888EF
S1130BA05F846E847D848C849B84AA84B984C88485
S1130BB0DF80EE80FD800C811B81AA81B981CE0F7C
S1130BC0D11D0FB6F894DEBF0FBECDBFED01089561
S1070BD0F894FFCFC3
S1130BD40141583A2536640041593A2536640041A6
S1090BE45A3A25366400B4
S9030000FC
